{
  "contractName": "HelloWorld",
  "abi": [
    {
      "inputs": [],
      "name": "name",
      "outputs": [
        {
          "internalType": "string",
          "name": "",
          "type": "string"
        }
      ],
      "stateMutability": "view",
      "type": "function",
      "constant": true
    },
    {
      "inputs": [],
      "name": "print",
      "outputs": [
        {
          "internalType": "string",
          "name": "",
          "type": "string"
        }
      ],
      "stateMutability": "view",
      "type": "function",
      "constant": true
    },
    {
      "inputs": [
        {
          "internalType": "string",
          "name": "_name",
          "type": "string"
        }
      ],
      "name": "updateName",
      "outputs": [],
      "stateMutability": "nonpayable",
      "type": "function"
    }
  ],
  "bytecode": "0x60806040526040518060400160405280600681526020017f4c696f6c6f6300000000000000000000000000000000000000000000000000008152506000908051906020019061004f929190610062565b5034801561005c57600080fd5b50610166565b82805461006e90610134565b90600052602060002090601f01602090048101928261009057600085556100d7565b82601f106100a957805160ff19168380011785556100d7565b828001600101855582156100d7579182015b828111156100d65782518255916020019190600101906100bb565b5b5090506100e491906100e8565b5090565b5b808211156101015760008160009055506001016100e9565b5090565b7f4e487b7100000000000000000000000000000000000000000000000000000000600052602260045260246000fd5b6000600282049050600182168061014c57607f821691505b602082108114156101605761015f610105565b5b50919050565b610602806101756000396000f3fe608060405234801561001057600080fd5b50600436106100415760003560e01c806306fdde031461004657806313bdfacd1461006457806384da92a714610082575b600080fd5b61004e61009e565b60405161005b91906102aa565b60405180910390f35b61006c61012c565b60405161007991906102aa565b60405180910390f35b61009c60048036038101906100979190610415565b610154565b005b600080546100ab9061048d565b80601f01602080910402602001604051908101604052809291908181526020018280546100d79061048d565b80156101245780601f106100f957610100808354040283529160200191610124565b820191906000526020600020905b81548152906001019060200180831161010757829003601f168201915b505050505081565b6060600060405160200161014091906105aa565b604051602081830303815290604052905090565b806000908051906020019061016a92919061016e565b5050565b82805461017a9061048d565b90600052602060002090601f01602090048101928261019c57600085556101e3565b82601f106101b557805160ff19168380011785556101e3565b828001600101855582156101e3579182015b828111156101e25782518255916020019190600101906101c7565b5b5090506101f091906101f4565b5090565b5b8082111561020d5760008160009055506001016101f5565b5090565b600081519050919050565b600082825260208201905092915050565b60005b8381101561024b578082015181840152602081019050610230565b8381111561025a576000848401525b50505050565b6000601f19601f8301169050919050565b600061027c82610211565b610286818561021c565b935061029681856020860161022d565b61029f81610260565b840191505092915050565b600060208201905081810360008301526102c48184610271565b905092915050565b6000604051905090565b600080fd5b600080fd5b600080fd5b600080fd5b7f4e487b7100000000000000000000000000000000000000000000000000000000600052604160045260246000fd5b61032282610260565b810181811067ffffffffffffffff82111715610341576103406102ea565b5b80604052505050565b60006103546102cc565b90506103608282610319565b919050565b600067ffffffffffffffff8211156103805761037f6102ea565b5b61038982610260565b9050602081019050919050565b82818337600083830152505050565b60006103b86103b384610365565b61034a565b9050828152602081018484840111156103d4576103d36102e5565b5b6103df848285610396565b509392505050565b600082601f8301126103fc576103fb6102e0565b5b813561040c8482602086016103a5565b91505092915050565b60006020828403121561042b5761042a6102d6565b5b600082013567ffffffffffffffff811115610449576104486102db565b5b610455848285016103e7565b91505092915050565b7f4e487b7100000000000000000000000000000000000000000000000000000000600052602260045260246000fd5b600060028204905060018216806104a557607f821691505b602082108114156104b9576104b861045e565b5b50919050565b600081905092915050565b7f48656c6c6f000000000000000000000000000000000000000000000000000000600082015250565b60006105006005836104bf565b915061050b826104ca565b600582019050919050565b60008190508160005260206000209050919050565b600081546105388161048d565b61054281866104bf565b9450600182166000811461055d576001811461056e576105a1565b60ff198316865281860193506105a1565b61057785610516565b60005b838110156105995781548189015260018201915060208101905061057a565b838801955050505b50505092915050565b60006105b5826104f3565b91506105c1828461052b565b91508190509291505056fea2646970667358221220f47687dec28c098d29a762cf09666bab15c40f35250272a2e57a2bdf87b6caa964736f6c634300080b0033",
  "immutableReferences": {},
  "source": "// SPDX-License-Identifier: MIT\npragma solidity ^0.8.11;\n\ncontract HelloWorld {\n    string public name = \"Lioloc\";\n\n    function print() external view returns (string memory) {\n        return string(abi.encodePacked('Hello', name));\n    }\n\n    function updateName(string memory _name) external {\n        name = _name;\n    }\n}",
  "sourcePath": "/Users/lioloc/Development/scaffold--crypto--truffle/main/contracts/HelloWorld.sol",
  "compiler": {
    "name": "solc",
    "version": "0.8.11+commit.d7f03943.Emscripten.clang"
  },
  "schemaVersion": "3.4.5",
  "updatedAt": "2022-02-20T14:21:01.198Z",
  "networkType": "ethereum",
  "devdoc": {
    "kind": "dev",
    "methods": {},
    "version": 1
  },
  "userdoc": {
    "kind": "user",
    "methods": {},
    "version": 1
  }
}